{
  "contractName": "PhotoRights",
  "abi": [
    {
      "constant": false,
      "inputs": [],
      "name": "unpause",
      "outputs": [],
      "payable": false,
      "stateMutability": "nonpayable",
      "type": "function"
    },
    {
      "constant": true,
      "inputs": [
        {
          "name": "",
          "type": "uint256"
        }
      ],
      "name": "registry",
      "outputs": [
        {
          "name": "fingerprint",
          "type": "bytes32"
        },
        {
          "name": "owner",
          "type": "address"
        },
        {
          "name": "timestamp",
          "type": "uint256"
        }
      ],
      "payable": false,
      "stateMutability": "view",
      "type": "function"
    },
    {
      "constant": true,
      "inputs": [],
      "name": "paused",
      "outputs": [
        {
          "name": "",
          "type": "bool"
        }
      ],
      "payable": false,
      "stateMutability": "view",
      "type": "function"
    },
    {
      "constant": false,
      "inputs": [],
      "name": "pause",
      "outputs": [],
      "payable": false,
      "stateMutability": "nonpayable",
      "type": "function"
    },
    {
      "constant": true,
      "inputs": [],
      "name": "owner",
      "outputs": [
        {
          "name": "",
          "type": "address"
        }
      ],
      "payable": false,
      "stateMutability": "view",
      "type": "function"
    },
    {
      "constant": false,
      "inputs": [
        {
          "name": "newOwner",
          "type": "address"
        }
      ],
      "name": "transferOwnership",
      "outputs": [],
      "payable": false,
      "stateMutability": "nonpayable",
      "type": "function"
    },
    {
      "anonymous": false,
      "inputs": [
        {
          "indexed": false,
          "name": "adder",
          "type": "address"
        },
        {
          "indexed": false,
          "name": "index",
          "type": "uint256"
        },
        {
          "indexed": false,
          "name": "hash",
          "type": "bytes32"
        }
      ],
      "name": "Registration",
      "type": "event"
    },
    {
      "anonymous": false,
      "inputs": [
        {
          "indexed": false,
          "name": "remover",
          "type": "address"
        },
        {
          "indexed": false,
          "name": "index",
          "type": "uint256"
        }
      ],
      "name": "Removal",
      "type": "event"
    },
    {
      "anonymous": false,
      "inputs": [
        {
          "indexed": false,
          "name": "oldOwner",
          "type": "address"
        },
        {
          "indexed": false,
          "name": "newOwner",
          "type": "address"
        },
        {
          "indexed": false,
          "name": "newIndex",
          "type": "uint256"
        }
      ],
      "name": "Transfer",
      "type": "event"
    },
    {
      "anonymous": false,
      "inputs": [],
      "name": "Pause",
      "type": "event"
    },
    {
      "anonymous": false,
      "inputs": [],
      "name": "Unpause",
      "type": "event"
    },
    {
      "anonymous": false,
      "inputs": [
        {
          "indexed": true,
          "name": "previousOwner",
          "type": "address"
        },
        {
          "indexed": true,
          "name": "newOwner",
          "type": "address"
        }
      ],
      "name": "OwnershipTransferred",
      "type": "event"
    },
    {
      "constant": false,
      "inputs": [
        {
          "name": "imageHash",
          "type": "string"
        }
      ],
      "name": "register",
      "outputs": [],
      "payable": false,
      "stateMutability": "nonpayable",
      "type": "function"
    },
    {
      "constant": true,
      "inputs": [
        {
          "name": "imageHash",
          "type": "string"
        }
      ],
      "name": "checkRegistration",
      "outputs": [
        {
          "name": "",
          "type": "bool"
        },
        {
          "name": "",
          "type": "uint256"
        }
      ],
      "payable": false,
      "stateMutability": "view",
      "type": "function"
    },
    {
      "constant": false,
      "inputs": [
        {
          "name": "index",
          "type": "uint256"
        }
      ],
      "name": "remove",
      "outputs": [],
      "payable": false,
      "stateMutability": "nonpayable",
      "type": "function"
    },
    {
      "constant": false,
      "inputs": [
        {
          "name": "index",
          "type": "uint256"
        },
        {
          "name": "newOwner",
          "type": "address"
        }
      ],
      "name": "transfer",
      "outputs": [],
      "payable": false,
      "stateMutability": "nonpayable",
      "type": "function"
    },
    {
      "constant": true,
      "inputs": [],
      "name": "getRegistrationCount",
      "outputs": [
        {
          "name": "",
          "type": "uint256"
        }
      ],
      "payable": false,
      "stateMutability": "view",
      "type": "function"
    }
  ],
  "bytecode": "0x608060405260008060146101000a81548160ff021916908315150217905550336000806101000a81548173ffffffffffffffffffffffffffffffffffffffff021916908373ffffffffffffffffffffffffffffffffffffffff160217905550610e6d8061006d6000396000f3006080604052600436106100af576000357c0100000000000000000000000000000000000000000000000000000000900463ffffffff1680633f4ba83a146100b45780634cc82215146100cb5780635893253c146100f857806359bfaee11461017b5780635c975abb146101a65780638456cb59146101d55780638da5cb5b146101ec578063b7760c8f14610243578063e131378714610290578063f2c298be146102ea578063f2fde38b14610325575b600080fd5b3480156100c057600080fd5b506100c9610368565b005b3480156100d757600080fd5b506100f660048036038101908080359060200190929190505050610426565b005b34801561010457600080fd5b50610123600480360381019080803590602001909291905050506105c5565b6040518084600019166000191681526020018373ffffffffffffffffffffffffffffffffffffffff1673ffffffffffffffffffffffffffffffffffffffff168152602001828152602001935050505060405180910390f35b34801561018757600080fd5b5061019061061e565b6040518082815260200191505060405180910390f35b3480156101b257600080fd5b506101bb61062b565b604051808215151515815260200191505060405180910390f35b3480156101e157600080fd5b506101ea61063e565b005b3480156101f857600080fd5b506102016106fe565b604051808273ffffffffffffffffffffffffffffffffffffffff1673ffffffffffffffffffffffffffffffffffffffff16815260200191505060405180910390f35b34801561024f57600080fd5b5061028e60048036038101908080359060200190929190803573ffffffffffffffffffffffffffffffffffffffff169060200190929190505050610723565b005b34801561029c57600080fd5b506102c960048036038101908080359060200190820180359060200191909192939192939050505061093b565b60405180831515151581526020018281526020019250505060405180910390f35b3480156102f657600080fd5b506103236004803603810190808035906020019082018035906020019190919293919293905050506109fd565b005b34801561033157600080fd5b50610366600480360381019080803573ffffffffffffffffffffffffffffffffffffffff169060200190929190505050610c10565b005b6000809054906101000a900473ffffffffffffffffffffffffffffffffffffffff1673ffffffffffffffffffffffffffffffffffffffff163373ffffffffffffffffffffffffffffffffffffffff161415156103c357600080fd5b600060149054906101000a900460ff1615156103de57600080fd5b60008060146101000a81548160ff0219169083151502179055507f7805862f689e2f13df9f062ff482ad3ad112aca9e0847911ed832e158c525b3360405160405180910390a1565b806000811015151561043757600080fd5b6001805490508110151561044a57600080fd5b600060010260018281548110151561045e57fe5b906000526020600020906003020160000154600019161415151561048157600080fd5b33828173ffffffffffffffffffffffffffffffffffffffff166001828154811015156104a957fe5b906000526020600020906003020160010160009054906101000a900473ffffffffffffffffffffffffffffffffffffffff1673ffffffffffffffffffffffffffffffffffffffff161415156104fd57600080fd5b60018481548110151561050c57fe5b90600052602060002090600302016000808201600090556001820160006101000a81549073ffffffffffffffffffffffffffffffffffffffff0219169055600282016000905550507f7456e06d701c71dc2a436bb783bb47076f91a9156f16850cbe238466ac467cd73385604051808373ffffffffffffffffffffffffffffffffffffffff1673ffffffffffffffffffffffffffffffffffffffff1681526020018281526020019250505060405180910390a150505050565b6001818154811015156105d457fe5b90600052602060002090600302016000915090508060000154908060010160009054906101000a900473ffffffffffffffffffffffffffffffffffffffff16908060020154905083565b6000600180549050905090565b600060149054906101000a900460ff1681565b6000809054906101000a900473ffffffffffffffffffffffffffffffffffffffff1673ffffffffffffffffffffffffffffffffffffffff163373ffffffffffffffffffffffffffffffffffffffff1614151561069957600080fd5b600060149054906101000a900460ff161515156106b557600080fd5b6001600060146101000a81548160ff0219169083151502179055507f6985a02210a168e66602d3235cb6db0e70f92b3ba4d376a33c0f3d9434bff62560405160405180910390a1565b6000809054906101000a900473ffffffffffffffffffffffffffffffffffffffff1681565b816000811015151561073457600080fd5b6001805490508110151561074757600080fd5b600060010260018281548110151561075b57fe5b906000526020600020906003020160000154600019161415151561077e57600080fd5b33838173ffffffffffffffffffffffffffffffffffffffff166001828154811015156107a657fe5b906000526020600020906003020160010160009054906101000a900473ffffffffffffffffffffffffffffffffffffffff1673ffffffffffffffffffffffffffffffffffffffff161415156107fa57600080fd5b600073ffffffffffffffffffffffffffffffffffffffff168473ffffffffffffffffffffffffffffffffffffffff161415151561083657600080fd5b8360018681548110151561084657fe5b906000526020600020906003020160010160006101000a81548173ffffffffffffffffffffffffffffffffffffffff021916908373ffffffffffffffffffffffffffffffffffffffff1602179055507fddf252ad1be2c89b69c2b068fc378daa952ba7f163c4a11628f55a4df523b3ef338587604051808473ffffffffffffffffffffffffffffffffffffffff1673ffffffffffffffffffffffffffffffffffffffff1681526020018373ffffffffffffffffffffffffffffffffffffffff1673ffffffffffffffffffffffffffffffffffffffff168152602001828152602001935050505060405180910390a15050505050565b600080600084848080601f01602080910402602001604051908101604052809392919081815260200183838082843782019150505050505061098c6020604051908101604052806000815250610d65565b6000191661099982610d65565b60001916141515156109aa57600080fd5b6109e586868080601f016020809104026020016040519081016040528093929190818152602001838380828437820191505050505050610d65565b91506109f082610dd1565b9350935050509250929050565b60008083838080601f016020809104026020016040519081016040528093929190818152602001838380828437820191505050505050610a4c6020604051908101604052806000815250610d65565b60001916610a5982610d65565b6000191614151515610a6a57600080fd5b610aa585858080601f016020809104026020016040519081016040528093929190818152602001838380828437820191505050505050610d65565b9250610ab083610dd1565b50915081151515610ac057600080fd5b6001606060405190810160405280856000191681526020013373ffffffffffffffffffffffffffffffffffffffff16815260200142815250908060018154018082558091505090600182039060005260206000209060030201600090919290919091506000820151816000019060001916905560208201518160010160006101000a81548173ffffffffffffffffffffffffffffffffffffffff021916908373ffffffffffffffffffffffffffffffffffffffff160217905550604082015181600201555050507f8467f1948229ebf06e860b2150e834ea19f0705b48f6b9f6c853570405c433db33600180805490500385604051808473ffffffffffffffffffffffffffffffffffffffff1673ffffffffffffffffffffffffffffffffffffffff1681526020018381526020018260001916600019168152602001935050505060405180910390a15050505050565b6000809054906101000a900473ffffffffffffffffffffffffffffffffffffffff1673ffffffffffffffffffffffffffffffffffffffff163373ffffffffffffffffffffffffffffffffffffffff16141515610c6b57600080fd5b600073ffffffffffffffffffffffffffffffffffffffff168173ffffffffffffffffffffffffffffffffffffffff1614151515610ca757600080fd5b8073ffffffffffffffffffffffffffffffffffffffff166000809054906101000a900473ffffffffffffffffffffffffffffffffffffffff1673ffffffffffffffffffffffffffffffffffffffff167f8be0079c531659141344cd1fd0a4f28419497f9722a3daafe3b4186f6b6457e060405160405180910390a3806000806101000a81548173ffffffffffffffffffffffffffffffffffffffff021916908373ffffffffffffffffffffffffffffffffffffffff16021790555050565b6000816040518082805190602001908083835b602083101515610d9d5780518252602082019150602081019050602083039250610d78565b6001836020036101000a03801982511681845116808217855250505050505090500191505060405180910390209050919050565b60008060008090505b600180549050811015610e30578360001916600182815481101515610dfb57fe5b906000526020600020906003020160000154600019161415610e235760018192509250610e3b565b8080600101915050610dda565b600080809050925092505b509150915600a165627a7a72305820914ba09d37ded4c12108900b27de8221763343ac5b988d3a7d2128a35fff63870029",
  "source": "pragma solidity ^0.4.24;\n\nimport \"../installed_contracts/zeppelin/contracts/lifecycle/Pausable.sol\";\n\ncontract PhotoRights is Pausable {\n\n    struct Hash {\n        bytes32 fingerprint;\n        address owner;\n        uint timestamp;\n    }\n\n    Hash[] public registry;\n\n    event Registration(address adder, uint index, bytes32 hash);\n    event Removal(address remover, uint index);\n    event Transfer(address oldOwner, address newOwner, uint newIndex);\n\n    modifier exists(uint index) {\n        require(index >= 0);\n        require(index < registry.length);\n        require(registry[index].fingerprint != 0);\n        _;\n    }\n\n    modifier isOwner(address owner, uint index) {\n        require(registry[index].owner == owner);\n        _;\n    }\n\n    modifier hashAllowed(string imageHash) {\n        require(digest(imageHash) != digest(''));\n        _;\n    }\n\n    function register(string imageHash) external hashAllowed(imageHash) {\n        bytes32 fingerprint = digest(imageHash);\n\n        (bool registered, ) = isRegistered(fingerprint);\n        require(!registered);\n\n        registry.push(Hash(fingerprint, msg.sender, now));\n\n        emit Registration(msg.sender, registry.length - 1, fingerprint);\n    }\n\n    function checkRegistration(string imageHash) external view hashAllowed(imageHash) returns (bool, uint) {\n        bytes32 fingerprint = digest(imageHash);\n        return isRegistered(fingerprint);\n    }\n\n    function remove(uint index) external exists(index) isOwner(msg.sender, index) {\n        delete registry[index];\n\n        emit Removal(msg.sender, index);\n    }\n\n    function transfer(uint index, address newOwner) external exists(index) isOwner(msg.sender, index) {\n        require(newOwner != address(0));\n\n        registry[index].owner = newOwner;\n\n        emit Transfer(msg.sender, newOwner, index);\n    }\n\n    function getRegistrationCount() external view returns (uint) {\n        return registry.length;\n    }\n\n    function isRegistered(bytes32 fingerprint) internal view returns (bool, uint) {\n        for (uint idx = 0; idx < registry.length; idx++) {\n            if (registry[idx].fingerprint == fingerprint) {\n                return (true, idx);\n            }\n        }\n\n        return (false, 0);\n    }\n\n    function digest(string input) internal pure returns (bytes32) {\n        return keccak256(bytes(input));\n    }\n}",
  "sourcePath": "/Users/peterullrich/Synced/SoftwareDevelopment/Blockchain/Ethereum/ConsenSys-Academy-Final-Project/SmartContracts/contracts/PhotoRights.sol",
  "compiler": {
    "name": "solc",
    "version": "0.4.24+commit.e67f0147.Emscripten.clang"
  },
  "schemaVersion": "2.0.1",
  "updatedAt": "2018-08-10T14:44:57.194Z"
}