{
  "contractName": "PhotoRights",
  "abi": [
    {
      "constant": true,
      "inputs": [
        {
          "name": "",
          "type": "uint256"
        }
      ],
      "name": "registry",
      "outputs": [
        {
          "name": "fingerprint",
          "type": "bytes32"
        },
        {
          "name": "owner",
          "type": "address"
        },
        {
          "name": "timestamp",
          "type": "uint256"
        }
      ],
      "payable": false,
      "stateMutability": "view",
      "type": "function"
    },
    {
      "anonymous": false,
      "inputs": [
        {
          "indexed": false,
          "name": "adder",
          "type": "address"
        },
        {
          "indexed": false,
          "name": "index",
          "type": "uint256"
        },
        {
          "indexed": false,
          "name": "hash",
          "type": "bytes32"
        }
      ],
      "name": "Registration",
      "type": "event"
    },
    {
      "anonymous": false,
      "inputs": [
        {
          "indexed": false,
          "name": "remover",
          "type": "address"
        },
        {
          "indexed": false,
          "name": "index",
          "type": "uint256"
        }
      ],
      "name": "Removal",
      "type": "event"
    },
    {
      "anonymous": false,
      "inputs": [
        {
          "indexed": false,
          "name": "oldOwner",
          "type": "address"
        },
        {
          "indexed": false,
          "name": "newOwner",
          "type": "address"
        },
        {
          "indexed": false,
          "name": "newIndex",
          "type": "uint256"
        }
      ],
      "name": "Transfer",
      "type": "event"
    },
    {
      "constant": false,
      "inputs": [
        {
          "name": "imageHash",
          "type": "string"
        }
      ],
      "name": "register",
      "outputs": [],
      "payable": false,
      "stateMutability": "nonpayable",
      "type": "function"
    },
    {
      "constant": true,
      "inputs": [
        {
          "name": "imageHash",
          "type": "string"
        }
      ],
      "name": "checkRegistration",
      "outputs": [
        {
          "name": "",
          "type": "bool"
        },
        {
          "name": "",
          "type": "uint256"
        }
      ],
      "payable": false,
      "stateMutability": "view",
      "type": "function"
    },
    {
      "constant": false,
      "inputs": [
        {
          "name": "index",
          "type": "uint256"
        }
      ],
      "name": "remove",
      "outputs": [],
      "payable": false,
      "stateMutability": "nonpayable",
      "type": "function"
    },
    {
      "constant": false,
      "inputs": [
        {
          "name": "newOwner",
          "type": "address"
        },
        {
          "name": "index",
          "type": "uint256"
        }
      ],
      "name": "transfer",
      "outputs": [],
      "payable": false,
      "stateMutability": "nonpayable",
      "type": "function"
    },
    {
      "constant": true,
      "inputs": [
        {
          "name": "index",
          "type": "uint256"
        }
      ],
      "name": "getHash",
      "outputs": [
        {
          "name": "",
          "type": "bytes32"
        },
        {
          "name": "",
          "type": "address"
        },
        {
          "name": "",
          "type": "uint256"
        }
      ],
      "payable": false,
      "stateMutability": "view",
      "type": "function"
    }
  ],
  "bytecode": "0x608060405234801561001057600080fd5b50610a5c806100206000396000f300608060405260043610610078576000357c0100000000000000000000000000000000000000000000000000000000900463ffffffff1680634cc822151461007d5780635893253c146100aa5780636b2fafa91461012d578063a9059cbb146101b0578063e1313787146101fd578063f2c298be14610257575b600080fd5b34801561008957600080fd5b506100a860048036038101908080359060200190929190505050610292565b005b3480156100b657600080fd5b506100d560048036038101908080359060200190929190505050610431565b6040518084600019166000191681526020018373ffffffffffffffffffffffffffffffffffffffff1673ffffffffffffffffffffffffffffffffffffffff168152602001828152602001935050505060405180910390f35b34801561013957600080fd5b506101586004803603810190808035906020019092919050505061048a565b6040518084600019166000191681526020018373ffffffffffffffffffffffffffffffffffffffff1673ffffffffffffffffffffffffffffffffffffffff168152602001828152602001935050505060405180910390f35b3480156101bc57600080fd5b506101fb600480360381019080803573ffffffffffffffffffffffffffffffffffffffff1690602001909291908035906020019092919050505061057b565b005b34801561020957600080fd5b50610236600480360381019080803590602001908201803590602001919091929391929390505050610757565b60405180831515151581526020018281526020019250505060405180910390f35b34801561026357600080fd5b506102906004803603810190808035906020019082018035906020019190919293919293905050506107ae565b005b80806000111515156102a357600080fd5b600080549050811015156102b657600080fd5b60006001026000828154811015156102ca57fe5b90600052602060002090600302016000015460001916141515156102ed57600080fd5b33828173ffffffffffffffffffffffffffffffffffffffff1660008281548110151561031557fe5b906000526020600020906003020160010160009054906101000a900473ffffffffffffffffffffffffffffffffffffffff1673ffffffffffffffffffffffffffffffffffffffff1614151561036957600080fd5b60008481548110151561037857fe5b90600052602060002090600302016000808201600090556001820160006101000a81549073ffffffffffffffffffffffffffffffffffffffff0219169055600282016000905550507f7456e06d701c71dc2a436bb783bb47076f91a9156f16850cbe238466ac467cd73385604051808373ffffffffffffffffffffffffffffffffffffffff1673ffffffffffffffffffffffffffffffffffffffff1681526020018281526020019250505060405180910390a150505050565b60008181548110151561044057fe5b90600052602060002090600302016000915090508060000154908060010160009054906101000a900473ffffffffffffffffffffffffffffffffffffffff16908060020154905083565b600080600083806000111515156104a057600080fd5b600080549050811015156104b357600080fd5b60006001026000828154811015156104c757fe5b90600052602060002090600302016000015460001916141515156104ea57600080fd5b6000858154811015156104f957fe5b90600052602060002090600302016000015460008681548110151561051a57fe5b906000526020600020906003020160010160009054906101000a900473ffffffffffffffffffffffffffffffffffffffff1660008781548110151561055b57fe5b906000526020600020906003020160020154935093509350509193909250565b808060001115151561058c57600080fd5b6000805490508110151561059f57600080fd5b60006001026000828154811015156105b357fe5b90600052602060002090600302016000015460001916141515156105d657600080fd5b33828173ffffffffffffffffffffffffffffffffffffffff166000828154811015156105fe57fe5b906000526020600020906003020160010160009054906101000a900473ffffffffffffffffffffffffffffffffffffffff1673ffffffffffffffffffffffffffffffffffffffff1614151561065257600080fd5b8460008581548110151561066257fe5b906000526020600020906003020160010160006101000a81548173ffffffffffffffffffffffffffffffffffffffff021916908373ffffffffffffffffffffffffffffffffffffffff1602179055507fddf252ad1be2c89b69c2b068fc378daa952ba7f163c4a11628f55a4df523b3ef338686604051808473ffffffffffffffffffffffffffffffffffffffff1673ffffffffffffffffffffffffffffffffffffffff1681526020018373ffffffffffffffffffffffffffffffffffffffff1673ffffffffffffffffffffffffffffffffffffffff168152602001828152602001935050505060405180910390a15050505050565b600080600061079785858080601f016020809104026020016040519081016040528093929190818152602001838380828437820191505050505050610954565b90506107a2816109c0565b92509250509250929050565b6000806107ec84848080601f016020809104026020016040519081016040528093929190818152602001838380828437820191505050505050610954565b91506107f7826109c0565b5090508015151561080757600080fd5b6000606060405190810160405280846000191681526020013373ffffffffffffffffffffffffffffffffffffffff16815260200142815250908060018154018082558091505090600182039060005260206000209060030201600090919290919091506000820151816000019060001916905560208201518160010160006101000a81548173ffffffffffffffffffffffffffffffffffffffff021916908373ffffffffffffffffffffffffffffffffffffffff160217905550604082015181600201555050507f8467f1948229ebf06e860b2150e834ea19f0705b48f6b9f6c853570405c433db3360008054905084604051808473ffffffffffffffffffffffffffffffffffffffff1673ffffffffffffffffffffffffffffffffffffffff1681526020018381526020018260001916600019168152602001935050505060405180910390a150505050565b6000816040518082805190602001908083835b60208310151561098c5780518252602082019150602081019050602083039250610967565b6001836020036101000a03801982511681845116808217855250505050505090500191505060405180910390209050919050565b60008060008090505b600080549050811015610a1f5783600019166000828154811015156109ea57fe5b906000526020600020906003020160000154600019161415610a125760018192509250610a2a565b80806001019150506109c9565b600080809050925092505b509150915600a165627a7a7230582004d4dda213c85f58368a9977625a1c4f07fda615060dd80dee79eb7d2c0fa8eb0029",
  "source": "pragma solidity ^0.4.24;\n\ncontract PhotoRights {\n\n    struct Hash {\n        bytes32 fingerprint;\n        address owner;\n        uint timestamp;\n    }\n\n    Hash[] public registry;\n\n    event Registration(address adder, uint index, bytes32 hash);\n    event Removal(address remover, uint index);\n    event Transfer(address oldOwner, address newOwner, uint newIndex);\n\n    modifier exists(uint index) {\n        require(0 <= index);\n        require(index < registry.length);\n        require(registry[index].fingerprint != 0);\n        _;\n    }\n\n    modifier isOwner(address owner, uint index) {\n        require(registry[index].owner == owner);\n        _;\n    }\n\n    function register(string imageHash) external {\n        bytes32 fingerprint = digest(imageHash);\n\n        (bool registered,) = isRegistered(fingerprint);\n        require(!registered);\n\n        registry.push(Hash(fingerprint, msg.sender, now));\n\n        emit Registration(msg.sender, registry.length, fingerprint);\n    }\n\n    function checkRegistration(string imageHash) external view returns (bool, uint) {\n        bytes32 fingerprint = digest(imageHash);\n        return isRegistered(fingerprint);\n    }\n\n    function remove(uint index) external exists(index) isOwner(msg.sender, index) {\n        delete registry[index];\n\n        emit Removal(msg.sender, index);\n    }\n\n    function transfer(address newOwner, uint index) external exists(index) isOwner(msg.sender, index) {\n        registry[index].owner = newOwner;\n\n        emit Transfer(msg.sender, newOwner, index);\n    }\n\n    function getHash(uint index) public view exists(index) returns (bytes32, address, uint) {\n        return (registry[index].fingerprint, registry[index].owner, registry[index].timestamp);\n    }\n\n    function isRegistered(bytes32 fingerprint) internal view returns (bool, uint) {\n        for (uint idx = 0; idx < registry.length; idx++) {\n            if (registry[idx].fingerprint == fingerprint) {\n                return (true, idx);\n            }\n        }\n\n        return (false, 0);\n    }\n\n    function digest(string input) internal pure returns (bytes32) {\n        return keccak256(bytes(input));\n    }\n}",
  "sourcePath": "/Users/peterullrich/Synced/SoftwareDevelopment/Blockchain/Ethereum/ConsenSys-Academy-Final-Project/SmartContracts/contracts/PhotoRights.sol",
  "compiler": {
    "name": "solc",
    "version": "0.4.24+commit.e67f0147.Emscripten.clang"
  },
  "schemaVersion": "2.0.1",
  "updatedAt": "2018-08-06T12:03:35.832Z"
}