{
  "contractName": "PhotoRights",
  "abi": [
    {
      "constant": true,
      "inputs": [
        {
          "name": "",
          "type": "uint256"
        }
      ],
      "name": "registry",
      "outputs": [
        {
          "name": "fingerprint",
          "type": "bytes32"
        },
        {
          "name": "owner",
          "type": "address"
        },
        {
          "name": "timestamp",
          "type": "uint256"
        }
      ],
      "payable": false,
      "stateMutability": "view",
      "type": "function"
    },
    {
      "anonymous": false,
      "inputs": [
        {
          "indexed": false,
          "name": "adder",
          "type": "address"
        },
        {
          "indexed": false,
          "name": "index",
          "type": "uint256"
        },
        {
          "indexed": false,
          "name": "hash",
          "type": "bytes32"
        }
      ],
      "name": "Registration",
      "type": "event"
    },
    {
      "anonymous": false,
      "inputs": [
        {
          "indexed": false,
          "name": "remover",
          "type": "address"
        },
        {
          "indexed": false,
          "name": "index",
          "type": "uint256"
        }
      ],
      "name": "Removal",
      "type": "event"
    },
    {
      "anonymous": false,
      "inputs": [
        {
          "indexed": false,
          "name": "oldOwner",
          "type": "address"
        },
        {
          "indexed": false,
          "name": "newOwner",
          "type": "address"
        },
        {
          "indexed": false,
          "name": "newIndex",
          "type": "uint256"
        }
      ],
      "name": "Transfer",
      "type": "event"
    },
    {
      "constant": true,
      "inputs": [
        {
          "name": "fingerprint",
          "type": "bytes32"
        }
      ],
      "name": "isRegistered",
      "outputs": [
        {
          "name": "",
          "type": "bool"
        },
        {
          "name": "",
          "type": "uint256"
        }
      ],
      "payable": false,
      "stateMutability": "view",
      "type": "function"
    },
    {
      "constant": false,
      "inputs": [
        {
          "name": "image",
          "type": "bytes"
        }
      ],
      "name": "register",
      "outputs": [],
      "payable": false,
      "stateMutability": "nonpayable",
      "type": "function"
    },
    {
      "constant": true,
      "inputs": [
        {
          "name": "index",
          "type": "uint256"
        }
      ],
      "name": "getHash",
      "outputs": [
        {
          "name": "",
          "type": "bytes32"
        },
        {
          "name": "",
          "type": "address"
        },
        {
          "name": "",
          "type": "uint256"
        }
      ],
      "payable": false,
      "stateMutability": "view",
      "type": "function"
    },
    {
      "constant": false,
      "inputs": [
        {
          "name": "index",
          "type": "uint256"
        }
      ],
      "name": "remove",
      "outputs": [],
      "payable": false,
      "stateMutability": "nonpayable",
      "type": "function"
    },
    {
      "constant": false,
      "inputs": [
        {
          "name": "newOwner",
          "type": "address"
        },
        {
          "name": "index",
          "type": "uint256"
        }
      ],
      "name": "transfer",
      "outputs": [],
      "payable": false,
      "stateMutability": "nonpayable",
      "type": "function"
    }
  ],
  "bytecode": "0x608060405234801561001057600080fd5b506109e4806100206000396000f300608060405260043610610078576000357c0100000000000000000000000000000000000000000000000000000000900463ffffffff16806327258b221461007d5780634cc82215146100cd5780635893253c146100fa5780636b2fafa91461017d57806382fbdc9c14610200578063a9059cbb14610269575b600080fd5b34801561008957600080fd5b506100ac60048036038101908080356000191690602001909291905050506102b6565b60405180831515151581526020018281526020019250505060405180910390f35b3480156100d957600080fd5b506100f860048036038101908080359060200190929190505050610326565b005b34801561010657600080fd5b50610125600480360381019080803590602001909291905050506104c5565b6040518084600019166000191681526020018373ffffffffffffffffffffffffffffffffffffffff1673ffffffffffffffffffffffffffffffffffffffff168152602001828152602001935050505060405180910390f35b34801561018957600080fd5b506101a86004803603810190808035906020019092919050505061051e565b6040518084600019166000191681526020018373ffffffffffffffffffffffffffffffffffffffff1673ffffffffffffffffffffffffffffffffffffffff168152602001828152602001935050505060405180910390f35b34801561020c57600080fd5b50610267600480360381019080803590602001908201803590602001908080601f016020809104026020016040519081016040528093929190818152602001838380828437820191505050505050919291929050505061060f565b005b34801561027557600080fd5b506102b4600480360381019080803573ffffffffffffffffffffffffffffffffffffffff169060200190929190803590602001909291905050506107dc565b005b60008060008090505b6000805490508110156103155783600019166000828154811015156102e057fe5b9060005260206000209060030201600001546000191614156103085760018192509250610320565b80806001019150506102bf565b600080809050925092505b50915091565b808060001115151561033757600080fd5b6000805490508110151561034a57600080fd5b600060010260008281548110151561035e57fe5b906000526020600020906003020160000154600019161415151561038157600080fd5b33828173ffffffffffffffffffffffffffffffffffffffff166000828154811015156103a957fe5b906000526020600020906003020160010160009054906101000a900473ffffffffffffffffffffffffffffffffffffffff1673ffffffffffffffffffffffffffffffffffffffff161415156103fd57600080fd5b60008481548110151561040c57fe5b90600052602060002090600302016000808201600090556001820160006101000a81549073ffffffffffffffffffffffffffffffffffffffff0219169055600282016000905550507f7456e06d701c71dc2a436bb783bb47076f91a9156f16850cbe238466ac467cd73385604051808373ffffffffffffffffffffffffffffffffffffffff1673ffffffffffffffffffffffffffffffffffffffff1681526020018281526020019250505060405180910390a150505050565b6000818154811015156104d457fe5b90600052602060002090600302016000915090508060000154908060010160009054906101000a900473ffffffffffffffffffffffffffffffffffffffff16908060020154905083565b6000806000838060001115151561053457600080fd5b6000805490508110151561054757600080fd5b600060010260008281548110151561055b57fe5b906000526020600020906003020160000154600019161415151561057e57600080fd5b60008581548110151561058d57fe5b9060005260206000209060030201600001546000868154811015156105ae57fe5b906000526020600020906003020160010160009054906101000a900473ffffffffffffffffffffffffffffffffffffffff166000878154811015156105ef57fe5b906000526020600020906003020160020154935093509350509193909250565b600080826040518082805190602001908083835b6020831015156106485780518252602082019150602081019050602083039250610623565b6001836020036101000a03801982511681845116808217855250505050505090500191505060405180910390209150610680826102b6565b5090508015151561069057600080fd5b6000606060405190810160405280846000191681526020013373ffffffffffffffffffffffffffffffffffffffff16815260200142815250908060018154018082558091505090600182039060005260206000209060030201600090919290919091506000820151816000019060001916905560208201518160010160006101000a81548173ffffffffffffffffffffffffffffffffffffffff021916908373ffffffffffffffffffffffffffffffffffffffff160217905550604082015181600201555050507f8467f1948229ebf06e860b2150e834ea19f0705b48f6b9f6c853570405c433db3360008054905084604051808473ffffffffffffffffffffffffffffffffffffffff1673ffffffffffffffffffffffffffffffffffffffff1681526020018381526020018260001916600019168152602001935050505060405180910390a1505050565b80806000111515156107ed57600080fd5b6000805490508110151561080057600080fd5b600060010260008281548110151561081457fe5b906000526020600020906003020160000154600019161415151561083757600080fd5b33828173ffffffffffffffffffffffffffffffffffffffff1660008281548110151561085f57fe5b906000526020600020906003020160010160009054906101000a900473ffffffffffffffffffffffffffffffffffffffff1673ffffffffffffffffffffffffffffffffffffffff161415156108b357600080fd5b846000858154811015156108c357fe5b906000526020600020906003020160010160006101000a81548173ffffffffffffffffffffffffffffffffffffffff021916908373ffffffffffffffffffffffffffffffffffffffff1602179055507fddf252ad1be2c89b69c2b068fc378daa952ba7f163c4a11628f55a4df523b3ef338686604051808473ffffffffffffffffffffffffffffffffffffffff1673ffffffffffffffffffffffffffffffffffffffff1681526020018373ffffffffffffffffffffffffffffffffffffffff1673ffffffffffffffffffffffffffffffffffffffff168152602001828152602001935050505060405180910390a150505050505600a165627a7a72305820a671c025e7a7241e57b14b132656a9e8b4e01c96a37e6493f9559e51438430ec0029",
  "source": "pragma solidity ^0.4.24;\n\ncontract PhotoRights {\n\n    struct Hash {\n        bytes32 fingerprint;\n        address owner;\n        uint timestamp;\n    }\n\n    Hash[] public registry;\n\n    event Registration(address adder, uint index, bytes32 hash);\n    event Removal(address remover, uint index);\n    event Transfer(address oldOwner, address newOwner, uint newIndex);\n\n    modifier exists(uint index) {\n        require(0 <= index);\n        require(index < registry.length);\n        require(registry[index].fingerprint != 0);\n        _;\n    }\n\n    modifier isOwner(address owner, uint index) {\n        require(registry[index].owner == owner);\n        _;\n    }\n\n    function isRegistered(bytes32 fingerprint) public view returns (bool, uint) {\n        for (uint idx = 0; idx < registry.length; idx++) {\n            if (registry[idx].fingerprint == fingerprint) {\n                return (true, idx);\n            }\n        }\n\n        return (false, 0);\n    }\n\n    function register(bytes image) public {\n        bytes32 fingerprint = keccak256(image);\n\n        (bool registered, ) = isRegistered(fingerprint);\n        require(!registered);\n\n        registry.push(Hash(fingerprint, msg.sender, now));\n\n        emit Registration(msg.sender, registry.length, fingerprint);\n    }\n\n    function getHash(uint index) public view exists(index) returns (bytes32, address, uint) {\n        return (registry[index].fingerprint, registry[index].owner, registry[index].timestamp);\n    }\n\n    function remove(uint index) public exists(index) isOwner(msg.sender, index) {\n        delete registry[index];\n\n        emit Removal(msg.sender, index);\n    }\n\n    function transfer(address newOwner, uint index) public exists(index) isOwner(msg.sender, index) {\n        registry[index].owner = newOwner;\n\n        emit Transfer(msg.sender, newOwner, index);\n    }\n}",
  "sourcePath": "/Users/peterullrich/GoogleDrive/SoftwareDevelopment/Blockchain/Ethereum/ConsenSys-Academy-Final-Project/SmartContracts/contracts/PhotoRights.sol",
  "compiler": {
    "name": "solc",
    "version": "0.4.24+commit.e67f0147.Emscripten.clang"
  },
  "schemaVersion": "2.0.1",
  "updatedAt": "2018-07-31T10:35:10.701Z"
}