{
  "contractName": "PhotoRights",
  "abi": [
    {
      "constant": false,
      "inputs": [],
      "name": "unpause",
      "outputs": [],
      "payable": false,
      "stateMutability": "nonpayable",
      "type": "function"
    },
    {
      "constant": true,
      "inputs": [
        {
          "name": "",
          "type": "uint256"
        }
      ],
      "name": "registry",
      "outputs": [
        {
          "name": "fingerprint",
          "type": "bytes32"
        },
        {
          "name": "owner",
          "type": "address"
        },
        {
          "name": "timestamp",
          "type": "uint256"
        }
      ],
      "payable": false,
      "stateMutability": "view",
      "type": "function"
    },
    {
      "constant": true,
      "inputs": [],
      "name": "paused",
      "outputs": [
        {
          "name": "",
          "type": "bool"
        }
      ],
      "payable": false,
      "stateMutability": "view",
      "type": "function"
    },
    {
      "constant": false,
      "inputs": [],
      "name": "pause",
      "outputs": [],
      "payable": false,
      "stateMutability": "nonpayable",
      "type": "function"
    },
    {
      "constant": true,
      "inputs": [],
      "name": "owner",
      "outputs": [
        {
          "name": "",
          "type": "address"
        }
      ],
      "payable": false,
      "stateMutability": "view",
      "type": "function"
    },
    {
      "constant": false,
      "inputs": [
        {
          "name": "newOwner",
          "type": "address"
        }
      ],
      "name": "transferOwnership",
      "outputs": [],
      "payable": false,
      "stateMutability": "nonpayable",
      "type": "function"
    },
    {
      "anonymous": false,
      "inputs": [
        {
          "indexed": false,
          "name": "adder",
          "type": "address"
        },
        {
          "indexed": false,
          "name": "index",
          "type": "uint256"
        },
        {
          "indexed": false,
          "name": "hash",
          "type": "bytes32"
        }
      ],
      "name": "Registration",
      "type": "event"
    },
    {
      "anonymous": false,
      "inputs": [
        {
          "indexed": false,
          "name": "remover",
          "type": "address"
        },
        {
          "indexed": false,
          "name": "index",
          "type": "uint256"
        }
      ],
      "name": "Removal",
      "type": "event"
    },
    {
      "anonymous": false,
      "inputs": [
        {
          "indexed": false,
          "name": "oldOwner",
          "type": "address"
        },
        {
          "indexed": false,
          "name": "newOwner",
          "type": "address"
        },
        {
          "indexed": false,
          "name": "newIndex",
          "type": "uint256"
        }
      ],
      "name": "Transfer",
      "type": "event"
    },
    {
      "anonymous": false,
      "inputs": [],
      "name": "Pause",
      "type": "event"
    },
    {
      "anonymous": false,
      "inputs": [],
      "name": "Unpause",
      "type": "event"
    },
    {
      "anonymous": false,
      "inputs": [
        {
          "indexed": true,
          "name": "previousOwner",
          "type": "address"
        },
        {
          "indexed": true,
          "name": "newOwner",
          "type": "address"
        }
      ],
      "name": "OwnershipTransferred",
      "type": "event"
    },
    {
      "constant": false,
      "inputs": [
        {
          "name": "imageData",
          "type": "string"
        }
      ],
      "name": "register",
      "outputs": [],
      "payable": false,
      "stateMutability": "nonpayable",
      "type": "function"
    },
    {
      "constant": true,
      "inputs": [
        {
          "name": "imageData",
          "type": "string"
        }
      ],
      "name": "checkRegistration",
      "outputs": [
        {
          "name": "",
          "type": "bool"
        },
        {
          "name": "",
          "type": "uint256"
        }
      ],
      "payable": false,
      "stateMutability": "view",
      "type": "function"
    },
    {
      "constant": false,
      "inputs": [
        {
          "name": "index",
          "type": "uint256"
        }
      ],
      "name": "remove",
      "outputs": [],
      "payable": false,
      "stateMutability": "nonpayable",
      "type": "function"
    },
    {
      "constant": false,
      "inputs": [
        {
          "name": "index",
          "type": "uint256"
        },
        {
          "name": "newOwner",
          "type": "address"
        }
      ],
      "name": "transfer",
      "outputs": [],
      "payable": false,
      "stateMutability": "nonpayable",
      "type": "function"
    },
    {
      "constant": true,
      "inputs": [],
      "name": "getRegistrationCount",
      "outputs": [
        {
          "name": "",
          "type": "uint256"
        }
      ],
      "payable": false,
      "stateMutability": "view",
      "type": "function"
    }
  ],
  "bytecode": "0x608060405260008060146101000a81548160ff0219169083151502179055506040600255336000806101000a81548173ffffffffffffffffffffffffffffffffffffffff021916908373ffffffffffffffffffffffffffffffffffffffff160217905550610e91806100726000396000f3006080604052600436106100af576000357c0100000000000000000000000000000000000000000000000000000000900463ffffffff1680633f4ba83a146100b45780634cc82215146100cb5780635893253c146100f857806359bfaee11461017b5780635c975abb146101a65780638456cb59146101d55780638da5cb5b146101ec578063b7760c8f14610243578063e131378714610290578063f2c298be146102ea578063f2fde38b14610325575b600080fd5b3480156100c057600080fd5b506100c9610368565b005b3480156100d757600080fd5b506100f660048036038101908080359060200190929190505050610426565b005b34801561010457600080fd5b50610123600480360381019080803590602001909291905050506105e1565b6040518084600019166000191681526020018373ffffffffffffffffffffffffffffffffffffffff1673ffffffffffffffffffffffffffffffffffffffff168152602001828152602001935050505060405180910390f35b34801561018757600080fd5b5061019061063a565b6040518082815260200191505060405180910390f35b3480156101b257600080fd5b506101bb610647565b604051808215151515815260200191505060405180910390f35b3480156101e157600080fd5b506101ea61065a565b005b3480156101f857600080fd5b5061020161071a565b604051808273ffffffffffffffffffffffffffffffffffffffff1673ffffffffffffffffffffffffffffffffffffffff16815260200191505060405180910390f35b34801561024f57600080fd5b5061028e60048036038101908080359060200190929190803573ffffffffffffffffffffffffffffffffffffffff16906020019092919050505061073f565b005b34801561029c57600080fd5b506102c9600480360381019080803590602001908201803590602001919091929391929390505050610973565b60405180831515151581526020018281526020019250505060405180910390f35b3480156102f657600080fd5b50610323600480360381019080803590602001908201803590602001919091929391929390505050610a1a565b005b34801561033157600080fd5b50610366600480360381019080803573ffffffffffffffffffffffffffffffffffffffff169060200190929190505050610c34565b005b6000809054906101000a900473ffffffffffffffffffffffffffffffffffffffff1673ffffffffffffffffffffffffffffffffffffffff163373ffffffffffffffffffffffffffffffffffffffff161415156103c357600080fd5b600060149054906101000a900460ff1615156103de57600080fd5b60008060146101000a81548160ff0219169083151502179055507f7805862f689e2f13df9f062ff482ad3ad112aca9e0847911ed832e158c525b3360405160405180910390a1565b806000811015151561043757600080fd5b6001805490508110151561044a57600080fd5b600060010260018281548110151561045e57fe5b906000526020600020906003020160000154600019161415151561048157600080fd5b33828173ffffffffffffffffffffffffffffffffffffffff166001828154811015156104a957fe5b906000526020600020906003020160010160009054906101000a900473ffffffffffffffffffffffffffffffffffffffff1673ffffffffffffffffffffffffffffffffffffffff161415156104fd57600080fd5b600060149054906101000a900460ff1615151561051957600080fd5b60018481548110151561052857fe5b90600052602060002090600302016000808201600090556001820160006101000a81549073ffffffffffffffffffffffffffffffffffffffff0219169055600282016000905550507f7456e06d701c71dc2a436bb783bb47076f91a9156f16850cbe238466ac467cd73385604051808373ffffffffffffffffffffffffffffffffffffffff1673ffffffffffffffffffffffffffffffffffffffff1681526020018281526020019250505060405180910390a150505050565b6001818154811015156105f057fe5b90600052602060002090600302016000915090508060000154908060010160009054906101000a900473ffffffffffffffffffffffffffffffffffffffff16908060020154905083565b6000600180549050905090565b600060149054906101000a900460ff1681565b6000809054906101000a900473ffffffffffffffffffffffffffffffffffffffff1673ffffffffffffffffffffffffffffffffffffffff163373ffffffffffffffffffffffffffffffffffffffff161415156106b557600080fd5b600060149054906101000a900460ff161515156106d157600080fd5b6001600060146101000a81548160ff0219169083151502179055507f6985a02210a168e66602d3235cb6db0e70f92b3ba4d376a33c0f3d9434bff62560405160405180910390a1565b6000809054906101000a900473ffffffffffffffffffffffffffffffffffffffff1681565b816000811015151561075057600080fd5b6001805490508110151561076357600080fd5b600060010260018281548110151561077757fe5b906000526020600020906003020160000154600019161415151561079a57600080fd5b33838173ffffffffffffffffffffffffffffffffffffffff166001828154811015156107c257fe5b906000526020600020906003020160010160009054906101000a900473ffffffffffffffffffffffffffffffffffffffff1673ffffffffffffffffffffffffffffffffffffffff1614151561081657600080fd5b600060149054906101000a900460ff1615151561083257600080fd5b600073ffffffffffffffffffffffffffffffffffffffff168473ffffffffffffffffffffffffffffffffffffffff161415151561086e57600080fd5b8360018681548110151561087e57fe5b906000526020600020906003020160010160006101000a81548173ffffffffffffffffffffffffffffffffffffffff021916908373ffffffffffffffffffffffffffffffffffffffff1602179055507fddf252ad1be2c89b69c2b068fc378daa952ba7f163c4a11628f55a4df523b3ef338587604051808473ffffffffffffffffffffffffffffffffffffffff1673ffffffffffffffffffffffffffffffffffffffff1681526020018373ffffffffffffffffffffffffffffffffffffffff1673ffffffffffffffffffffffffffffffffffffffff168152602001828152602001935050505060405180910390a15050505050565b60008083838080601f0160208091040260200160405190810160405280939291908181526020018383808284378201915050505050506002548151111515156109bb57600080fd5b600081511115156109cb57600080fd5b610a0e610a0986868080601f016020809104026020016040519081016040528093929190818152602001838380828437820191505050505050610d89565b610df5565b92509250509250929050565b60008083838080601f016020809104026020016040519081016040528093929190818152602001838380828437820191505050505050600254815111151515610a6257600080fd5b60008151111515610a7257600080fd5b600060149054906101000a900460ff16151515610a8e57600080fd5b610ac985858080601f016020809104026020016040519081016040528093929190818152602001838380828437820191505050505050610d89565b9250610ad483610df5565b50915081151515610ae457600080fd5b6001606060405190810160405280856000191681526020013373ffffffffffffffffffffffffffffffffffffffff16815260200142815250908060018154018082558091505090600182039060005260206000209060030201600090919290919091506000820151816000019060001916905560208201518160010160006101000a81548173ffffffffffffffffffffffffffffffffffffffff021916908373ffffffffffffffffffffffffffffffffffffffff160217905550604082015181600201555050507f8467f1948229ebf06e860b2150e834ea19f0705b48f6b9f6c853570405c433db33600180805490500385604051808473ffffffffffffffffffffffffffffffffffffffff1673ffffffffffffffffffffffffffffffffffffffff1681526020018381526020018260001916600019168152602001935050505060405180910390a15050505050565b6000809054906101000a900473ffffffffffffffffffffffffffffffffffffffff1673ffffffffffffffffffffffffffffffffffffffff163373ffffffffffffffffffffffffffffffffffffffff16141515610c8f57600080fd5b600073ffffffffffffffffffffffffffffffffffffffff168173ffffffffffffffffffffffffffffffffffffffff1614151515610ccb57600080fd5b8073ffffffffffffffffffffffffffffffffffffffff166000809054906101000a900473ffffffffffffffffffffffffffffffffffffffff1673ffffffffffffffffffffffffffffffffffffffff167f8be0079c531659141344cd1fd0a4f28419497f9722a3daafe3b4186f6b6457e060405160405180910390a3806000806101000a81548173ffffffffffffffffffffffffffffffffffffffff021916908373ffffffffffffffffffffffffffffffffffffffff16021790555050565b6000816040518082805190602001908083835b602083101515610dc15780518252602082019150602081019050602083039250610d9c565b6001836020036101000a03801982511681845116808217855250505050505090500191505060405180910390209050919050565b60008060008090505b600180549050811015610e54578360001916600182815481101515610e1f57fe5b906000526020600020906003020160000154600019161415610e475760018192509250610e5f565b8080600101915050610dfe565b600080809050925092505b509150915600a165627a7a7230582016cba31f8e9f9055f1aa0ed8f1dbfbe867b41fd429aa6d35fa1ab023f6de825d0029",
  "source": "pragma solidity ^0.4.24;\n\nimport \"../installed_contracts/zeppelin/contracts/lifecycle/Pausable.sol\";\n\n// @title Contract to store, check, transfer, and remove image copyrights.\n// @author Peter Ullrich\n// @dev Contract extends the Open Zeppelin Pausable contract for its emergency stop implementation.\ncontract PhotoRights is Pausable {\n\n    // @dev Struct that store all information about a image registration.\n    struct Image {\n\n        // @dev Keccak256 hash of image data.\n        bytes32 fingerprint;\n\n        // @dev Address owning the image registration.\n        address owner;\n\n        // @dev Timestamp of image registration.\n        uint timestamp;\n    }\n\n    // @dev The main storage array that contains structs that stores\n    // all information for the image registrations.\n    Image[] public registry;\n\n    // @dev The maximal input length in bytes for image data.\n    // Equal to the length of a Sha256 hash, which has 256 bit = 64 bytes.\n    uint private maxInputLength = 64;\n\n    // @dev Registration event is emitted whenever a new image is registered.\n    event Registration(address adder, uint index, bytes32 hash);\n\n    // @dev Removal event is emitted whenever a image registration is removed.\n    event Removal(address remover, uint index);\n\n    // @dev Transfer event is emitted whenever a image registration is transferred\n    // to a new owner address.\n    event Transfer(address oldOwner, address newOwner, uint newIndex);\n\n    // @dev Conditional Modifier that verifies the validity of an index input\n    // and checks that a image registration exists at the given index.\n    modifier exists(uint index) {\n        require(index >= 0);\n        require(index < registry.length);\n        require(registry[index].fingerprint != 0);\n        _;\n    }\n\n    // @dev Access Modifier that restricts certain image registration functionality\n    // to the registration's owner address.\n    modifier isOwner(address owner, uint index) {\n        require(registry[index].owner == owner);\n        _;\n    }\n\n    // @dev Conditional Modifier that verifies that the image data input is not empty.\n    // Could be extended to cover more edge cases.\n    modifier dataAllowed(string imageData) {\n        require(bytes(imageData).length <= maxInputLength);\n        require(bytes(imageData).length > 0);\n        _;\n    }\n\n    // @dev An external method that allows the user to create a new image registration\n    // from a string containing the image data. The string is typically a Sha3 hex hash of the\n    // actual image, but can be any information really. Will generate a Registration event upon\n    // completion. Method only available if contract is not paused.\n    // @param imageData The data of the image. Typically a hex hash of the actual image.\n    function register(\n        string imageData\n    )\n        external\n        dataAllowed(imageData)\n        whenNotPaused\n    {\n        bytes32 fingerprint = digest(imageData);\n\n        (bool registered,) = isRegistered(fingerprint);\n        require(!registered);\n\n        registry.push(Image(fingerprint, msg.sender, now));\n\n        emit Registration(msg.sender, registry.length - 1, fingerprint);\n    }\n\n    // @dev An external view method that checks whether a image registration for\n    // given image data exists. Returns true and the index of the registration if a\n    // image registration exists, otherwise returns false and null. The method is\n    // available even if the contract is paused, since no state changes are created.\n    // @param imageData The data of the image. Typically a hex hash of the actual image.\n    function checkRegistration(\n        string imageData\n    )\n        external\n        view\n        dataAllowed(imageData)\n        returns (bool, uint)\n    {\n        return isRegistered(digest(imageData));\n    }\n\n    // @dev An external method with which a image registration can be removed. Only the owner of\n    // the registration can remove the registration. Will generate a Removal event upon completion.\n    // The method is not available when the contract is paused since it changes the state.\n    // @param index The index of the image registration to be removed.\n    function remove(\n        uint index\n    )\n        external\n        exists(index)\n        isOwner(msg.sender, index)\n        whenNotPaused\n    {\n        delete registry[index];\n\n        emit Removal(msg.sender, index);\n    }\n\n    // @dev An external method that transfers the ownership over a image registration to a new\n    // owner address. Checks that the new owner address is not the null address to prevent\n    // an image registration from becoming unavailable. The method is not available when the\n    // contract is paused since it changes the state. Generates a Transfer event upon completion.\n    // @param index The index of the image registration to be transferred in the registry array.\n    // @param newOwner The address to which the registration ownership shall be transferred.\n    function transfer(\n        uint index,\n        address newOwner\n    )\n        external\n        exists(index)\n        isOwner(msg.sender, index)\n        whenNotPaused\n    {\n        require(newOwner != address(0));\n\n        registry[index].owner = newOwner;\n\n        emit Transfer(msg.sender, newOwner, index);\n    }\n\n    // @dev An external view method that simply returns the length of the registry array. This\n    // function is necessary for the UI to iterate through every registration in the registry array.\n    function getRegistrationCount()\n        external\n        view\n        returns (uint)\n    {\n        return registry.length;\n    }\n\n    // @dev An internal view method that checks whether a registration for a given keccak256 hash exists.\n    // Returns true and the index of the registration in the registry array if a image registration\n    // exists. Otherwise returns false and null. The method iterates through the whole registry\n    // array and checks whether any registration contains the given keccak256 hash.\n    // @param fingerprint A keccak256 hash, whose existence of registration is to be checked.\n    function isRegistered(\n        bytes32 fingerprint\n    )\n        internal\n        view\n        returns (bool, uint)\n    {\n        for (uint idx = 0; idx < registry.length; idx++) {\n            if (registry[idx].fingerprint == fingerprint) {\n                return (true, idx);\n            }\n        }\n\n        return (false, 0);\n    }\n\n    // @dev A pure internal method that converts a given string input to bytes and creates the\n    // keccak256 hash of those bytes. The method returns the computed keccak256 hash of the bytes.\n    function digest(\n        string input\n    )\n        internal\n        pure\n        returns (bytes32)\n    {\n        return keccak256(bytes(input));\n    }\n}",
  "sourcePath": "/Users/peterullrich/Synced/SoftwareDevelopment/Blockchain/Ethereum/ConsenSys-Academy-Final-Project/SmartContracts/contracts/PhotoRights.sol",
  "compiler": {
    "name": "solc",
    "version": "0.4.24+commit.e67f0147.Emscripten.clang"
  },
  "schemaVersion": "2.0.1",
  "updatedAt": "2018-08-13T15:48:32.148Z"
}